{
    "contractName": "TransferToken",
    "abi": [
        {
            "inputs": [
                {
                    "internalType": "uint256",
                    "name": "initial_supply",
                    "type": "uint256"
                }
            ],
            "stateMutability": "nonpayable",
            "type": "constructor"
        },
        {
            "inputs": [
                {
                    "internalType": "address",
                    "name": "to",
                    "type": "address"
                },
                {
                    "internalType": "uint256",
                    "name": "value",
                    "type": "uint256"
                }
            ],
            "name": "transfers",
            "outputs": [],
            "stateMutability": "nonpayable",
            "type": "function"
        }
    ],
    "bytecode": "608034605757601f6101c838819003918201601f19168301916001600160401b03831184841017605b5780849260209460405283398101031260575751335f525f60205260405f205560405161015890816100708239f35b5f80fd5b634e487b7160e01b5f52604160045260245ffdfe6080806040526004361015610012575f80fd5b5f3560e01c6357b1dbe314610025575f80fd5b3461011e57604036600319011261011e576004356001600160a01b0381169081900361011e576024359181156100ea5750335f525f6020528160405f2054106100ae57335f525f60205260405f2080549083820391821161009a57555f525f60205260405f20805491820180921161009a5755005b634e487b7160e01b5f52601160045260245ffd5b60405162461bcd60e51b8152602060048201526014602482015273496e73756666696369656e742062616c616e636560601b6044820152606490fd5b62461bcd60e51b815260206004820152600f60248201526e496e76616c6964206164647265737360881b6044820152606490fd5b5f80fdfea2646970667358221220fbcf5dcc888c40578b6d5c8c4affa2cb9a9dcfcf6eb4089ff967c7895dbd355b64736f6c634300081c0033",
    "sourcePath": "d:/Blockchain_sheet_question_sol/Blockchain_sheet_ques_solution/solidity_interview_questions_sol/second.sol",
    "compiler": {
        "name": "solc",
        "version": "0.8.28+commit.7893614a"
    },
    "functionHashes": {
        "transfers(address,uint256)": "57b1dbe3"
    },
    "gasEstimates": {
        "creation": {
            "codeDepositCost": "68800",
            "executionCost": "infinite",
            "totalCost": "infinite"
        },
        "external": {
            "transfers(address,uint256)": "50978"
        }
    }
}